:020000040000FA
:100000000C9449030C9471030C9471030C947103C8
:100010000C9471030C9471030C9471030C94710390
:100020000C9471030C9471030C9471030C94710380
:100030000C9471030C9471030C9471030C94710370
:100040000C940A120C9471030C94D8110C94B211F4
:100050000C9471030C9471030C9471030C94710350
:100060000C9454120C94710300000000003E5B4F8E
:100070005B3E3E6B4F6B3E1C3E7C3E1C183C7E3C08
:10008000181C577D571C1C5E7F5E1C00183C180016
:10009000FFE7C3E7FF0018241800FFE7DBE7FF30A6
:1000A000483A060E2629792926407F050507407F14
:1000B00005253F5A3CE73C5A7F3E1C1C08081C1C87
:1000C0003E7F14227F22145F5F005F5F06097F017D
:1000D0007F006689956A606060606094A2FFA29468
:1000E00008047E040810207E201008082A1C080836
:1000F0001C2A08081E101010100C1E0C1E0C303884
:100100003E3830060E3E0E06000000000000005F84
:1001100000000007000700147F147F14242A7F2AA0
:100120001223130864623649562050000807030062
:10013000001C2241000041221C002A1C7F1C2A08AE
:10014000083E080800807030000808080808000011
:1001500060600020100804023E5149453E00427F85
:10016000400072494949462141494D331814127FD4
:100170001027454545393C4A494931412111090774
:100180003649494936464949291E000014000000F5
:1001900040340000000814224114141414140041C7
:1001A00022140802015909063E415D594E7C121184
:1001B000127C7F494949363E414141227F414141BC
:1001C0003E7F494949417F090909013E4141517337
:1001D0007F0808087F00417F41002040413F017FA8
:1001E000081422417F404040407F021C027F7F0470
:1001F00008107F3E4141413E7F090909063E4151B9
:10020000215E7F09192946264949493203017F01A8
:10021000033F4040403F1F2040201F3F4038403FA9
:10022000631408146303047804036159494D4300BF
:100230007F4141410204081020004141417F0402F6
:10024000010204404040404000030708002054548D
:1002500078407F284444383844444428384444286B
:100260007F385454541800087E090218A4A49C78BE
:100270007F0804047800447D40002040403D007F1A
:100280001028440000417F40007C047804787C08FA
:100290000404783844444438FC18242418182424CE
:1002A00018FC7C08040408485454542404043F44B3
:1002B000243C4040207C1C2040201C3C4030403CE2
:1002C00044281028444C9090907C4464544C440042
:1002D00008364100000077000000413608000201A6
:1002E0000204023C2623263C1EA1A161123A404092
:1002F000207A38545455592155557941225454780F
:1003000042215554784020545579400C1E527212A7
:100310003955555559395454545939555454580030
:1003200000457C410002457D420001457C407D1234
:1003300011127DF0282528F07C5455450020545496
:100340007C547C0A097F4932494949323A44444441
:100350003A324A4848303A4141217A3A424020787C
:10036000009DA0A07D3D4242423D3D4040403D3C7D
:1003700024FF2424487E4943662B2FFC2F2BFF09A2
:1003800029F620C0887E0903205454794100004496
:100390007D413048484A32384040227A007A0A0A81
:1003A000727D0D19317D2629292F282629292926F4
:1003B00030484D4020380808080808080808382F39
:1003C00010C8ACBA2F102834FA00007B00000814C3
:1003D0002A142222142A14085500550055AA55AA99
:1003E00055AAFF55FF55FF000000FF00101010FF39
:1003F00000141414FF001010FF00FF1010F010F094
:10040000141414FC001414F700FF0000FF00FF1484
:1004100014F404FC141417101F10101F101F1414D0
:10042000141F00101010F0000000001F101010101A
:100430001F10101010F010000000FF10101010100E
:1004400010101010FF10000000FF140000FF00FF4C
:1004500000001F10170000FC04F4141417101714E8
:1004600014F404F40000FF00F7141414141414140A
:10047000F700F7141414171410101F101F1414147D
:10048000F4141010F010F000001F101F0000001FE7
:1004900014000000FC140000F010F01010FF10FF1A
:1004A000141414FF141010101F00000000F010FFAF
:1004B000FFFFFFFFF0F0F0F0F0FFFFFF0000000093
:1004C00000FFFF0F0F0F0F0F3844443844FC4A4A17
:1004D0004A347E02020606027E027E0263554941CC
:1004E000633844443C04407E201E2006027E020203
:1004F00099A5E7A5991C2A492A1C4C7201724C3017
:100500004A4D4D303048784830BC625A463D3E49ED
:100510004949007E0101017E2A2A2A2A2A44445F91
:10052000444440514A444040444A51400000FF0185
:1005300003E080FF000008086B6B08361236243693
:10054000060F090F060000181800000010100030F8
:1005500040FF0101001F01011E00191D1712003C80
:100560003C3C3C0000000000696C6C6567616C20DD
:10057000696E70757421004E6F77205465737469CD
:100580006E67204D6F6E6F6368726F6D65203132DC
:100590003878333220493243204F4C45442067722B
:1005A000617068696320646973706C617900286D9B
:1005B000656E75292073656E6420616E7974686953
:1005C0006E6720656C7365206F722070726573733F
:1005D000206F6E20626F6172642072657365742093
:1005E000627574746F6E0A00283129204D6F6E6F2A
:1005F0006368726F6D65203132387833322049324A
:1006000043204F4C454420677261706869632064E1
:100610006973706C6179000A576869636820636F59
:100620006D706F6E656E7420776F756C6420796F76
:1006300075206C696B6520746F20746573743F005E
:100640000000000800020100000304070000000091
:100650000000000000000000250028002B00000022
:100660000000240027002A000404040404040404F5
:10067000020202020202030303030303010204084D
:1006800010204080010204081020010204081020FC
:10069000731311241FBECFEFD8E0DEBFCDBF13E030
:1006A000A0E0B1E0E4E1FDE202C005900D92AC37BC
:1006B000B107D9F725E0ACE7B3E001C01D92AC313A
:1006C000B207E1F713E0C9E4D3E004C02197FE01CB
:1006D0000E946516C834D107C9F70E94D8130C943C
:1006E00088160C94000028E030E040E8E091120504
:1006F000F091130550819091190590959523908361
:10070000E0911005F091110590911805582F542390
:1007100089F05081952B9083E0911205F09113059B
:10072000908150911905952B908346952150310960
:10073000E9F60895508190959523EDCF90E0FC0166
:10074000E458F94F24918859994FFC0184918823EA
:1007500099F090E0880F991FFC01E25AF94FA5919A
:10076000B491FC01EC5AF94F859194918FB7F894AC
:10077000EC91E22BEC938FBF089508950895AF920A
:10078000BF92CF92DF92EF92FF920F931F93CF937E
:10079000DF936C017B018B01040F151FEB015E01E0
:1007A000AE18BF08C017D10759F06991D601ED9175
:1007B000FC910190F081E02DC6010995892B79F714
:1007C000C501DF91CF911F910F91FF90EF90DF90C6
:1007D000CF90BF90AF900895FC01538D448D252F8D
:1007E00030E0842F90E0821B930B541710F0CF96CB
:1007F000089501970895FC01918D828D981761F0FD
:10080000A28DAE0FBF2FB11D5D968C91928D9F5F13
:100810009F73928F90E008958FEF9FEF0895FC01F2
:10082000918D828D981731F0828DE80FF11D858DA5
:1008300090E008958FEF9FEF0895FC01918D228D38
:10084000892F90E0805C9F4F821B91098F739927BD
:10085000089585E494E00E941D0421E0892B09F4A9
:1008600020E0822F089580E090E0892B29F00E94FB
:10087000290481110C9400000895FC01A48DA80F97
:10088000B92FB11DA35ABF4F2C91848D90E00196D2
:100890008F739927848FA689B7892C93A089B189F2
:1008A0008C91837080648C93938D848D981306C093
:1008B0000288F389E02D80818F7D80830895EF92F7
:1008C000FF920F931F93CF93DF93EC0181E0888F0A
:1008D0009B8D8C8D98131AC0E889F989808185FFDA
:1008E00015C09FB7F894EE89FF896083E889F9897C
:1008F00080818370806480839FBF81E090E0DF917E
:10090000CF911F910F91FF90EF900895F62E0B8DD0
:1009100010E00F5F1F4F0F731127E02E8C8D8E118B
:100920000CC00FB607FCFACFE889F989808185FFF2
:10093000F5CFCE010E943D04F1CFEB8DEC0FFD2FE2
:10094000F11DE35AFF4FF0829FB7F8940B8FEA89AD
:10095000FB8980818062CFCFCF93DF93EC01888DBC
:100960008823B9F0AA89BB89E889F9898C9185FD2A
:1009700003C0808186FD0DC00FB607FCF7CF8C91B8
:1009800085FFF2CF808185FFEDCFCE010E943D042F
:10099000E9CFDF91CF91089590E0FC01E05CF94F41
:1009A0002491FC01E458F94F3491FC01E859F94FC6
:1009B000E491EE23C9F0222339F0233001F1A8F4A9
:1009C000213019F1223029F1F0E0EE0FFF1FEC5A2F
:1009D000F94FA591B4918FB7F894EC91611126C0AD
:1009E00030953E233C938FBF08952730A9F02830DF
:1009F000C9F0243049F7809180008F7D03C0809139
:100A000080008F7780938000DFCF84B58F7784BD9F
:100A1000DBCF84B58F7DFBCF8091B0008F77809343
:100A2000B000D2CF8091B0008F7DF9CF3E2BDACFCE
:100A30003FB7F8948091E1039091E203A091E30322
:100A4000B091E40326B5A89B05C02F3F19F001968D
:100A5000A11DB11D3FBFBA2FA92F982F8827BC0118
:100A6000CD01620F711D811D911D42E0660F771F40
:100A7000881F991F4A95D1F708958F929F92AF9240
:100A8000BF92CF92DF92EF92FF924B015C010E94E6
:100A900018056B017C010E9418056C197D098E09EF
:100AA0009F09683E734081059105A8F321E0821AF1
:100AB0009108A108B10888EEC80E83E0D81EE11C99
:100AC000F11C81149104A104B10429F7FF90EF9067
:100AD000DF90CF90BF90AF909F908F90089520911E
:100AE000BD03260F3327331F21323105ECF420914B
:100AF0001B04FC0190E080E0243069F082E008955E
:100B0000A091BD032191AC0143565C4FA40FB52FBA
:100B1000B11D2C930196861798F38091BD03680F41
:100B20006093BD0380E0089581E0089510921B0456
:100B300081E080931A041092F50361E082E10E9443
:100B4000CC0461E083E10E94CC04E9EBF0E0808119
:100B50008E7F808380818D7F808388E48093B8003E
:100B600085E48093BC000895CF93DF9391E0909348
:100B70009C038823B9F0C091B800D091BA0080914D
:100B8000BC008A7B8093BC0060E082E10E94CC04C0
:100B900060E083E10E94CC040E949605D093BA00E5
:100BA000C093B800DF91CF910895CF92DF92EF927A
:100BB000FF920F931F93CF93DF93D091440481E072
:100BC000D13208F09CC0C09143040E9418056B010B
:100BD0007C0180911B0481116CC082E080931B0416
:100BE00081E080931A048FEF809319041092180407
:100BF000D0931704A3E2B4E0E7EFF3E080E0D8136A
:100C00008DC01092F6038091F603CC0FC82BC093D1
:100C1000F6038091F503813009F084C01092F5034A
:100C20000E9418056B017C018091F6038093BB0044
:100C300080911D0490911E04A0911F04B091200486
:100C4000892B8A2B8B2BA1F00E94180500911D0483
:100C500010911E0420911F04309120046C197D090D
:100C60008E099F09061717072807390708F442C09D
:100C70008091BC0083FDD8CF85EC8093BC000E949E
:100C800018056B017C0180911B04823009F44CC073
:100C9000809119048F3F09F469C080911904803252
:100CA00009F466C080911904803309F463C084E0BC
:100CB00026C080911D0490911E04A0911F04B09144
:100CC0002004892B8A2B8B2B09F483CF0E941805D3
:100CD00000911D0410911E0420911F0430912004E6
:100CE0006C197D098E099F09061717072807390710
:100CF00008F06FCF80911C040E94B40585E010922B
:100D000022041092440410922104DF91CF911F918C
:100D10000F91FF90EF90DF90CF9008959D91919368
:100D20008F5F6DCF85EEA9CF80911D0490911E0439
:100D3000A0911F04B0912004892B8A2B8B2B09F4DE
:100D4000A2CF0E94180500911D0410911E0420914D
:100D50001F04309120046C197D098E099F09061724
:100D600017072807390708F08ECFC4CF80E0C7CF18
:100D700082E0C5CF83E0C3CF0895E091EA0380917C
:100D8000E903E81730F4F0E0E458FC4F808190E08C
:100D900008958FEF9FEF08959091EA038091E90302
:100DA0002FEF3FEF981748F4E92FF0E0E458FC4F9D
:100DB000208130E09F5F9093EA03C90108958091FC
:100DC000E9039091EA03891B990B0895CF92DF9272
:100DD000EF92FF920F931F93CF93DF937C01CB0190
:100DE0008A0120912104222389F0EB016B01C40EBA
:100DF000D51ECC15DD0569F06991D701ED91FC9107
:100E00000190F081E02DC7010995F3CF642F0E9476
:100E10006F05C801DF91CF911F910F91FF90EF9067
:100E2000DF90CF900895CF93DF931F92CDB7DEB7B9
:100E30006983209121042223F9F020914404203277
:100E400058F021E030E0FC013383228390E080E021
:100E50000F90DF91CF91089580912204E82FF0E068
:100E6000ED5DFB4F998190838F5F80932204809387
:100E7000440481E090E0ECCF61E0CE0101960E9455
:100E80006F05F7CFCF93C82F80910A058F3FB1F13F
:100E9000E0911405F0911505808190911A05892B38
:100EA0008083E0911605F0911705908180911B05D4
:100EB000809589238083E0911405F0911505908138
:100EC00080911A0580958923808380910F0588235E
:100ED00089F0CEBD00000DB407FEFDCF8EB5E091C8
:100EE0001405F0911505808190911A05892B808356
:100EF000CF9108958C2F0E947303F1CF8091080544
:100F000091E0909321048093430410922204109264
:100F1000440460E082EE94E00E9413076C2F82EE9E
:100F200094E00E941307CF910C94D505DF92EF92C5
:100F3000FF920F931F93CF93DF9381E20E944207AA
:100F400080E00E9442078FE70E94420782E20E94EF
:100F5000420780E00E94420783E00E94420780919E
:100F60000A058F3F09F442C0E0911405F091150580
:100F7000808190911A05892B8083E0911605F0916C
:100F80001705808190911B05892B8083E0911405C2
:100F9000F0911505908180911A05809589238083B1
:100FA000C0E0D1E000E013E0899190910F05992312
:100FB000D1F08EBD00000DB407FEFDCF8EB50C172D
:100FC0001D0791F7E0911405F0911505808190912E
:100FD0001A05892B8083DF91CF911F910F91FF908C
:100FE000EF90DF9008950E947303E9CF0091B8005D
:100FF0008CE08093B800C0E0D1E0DD24D3948091F0
:101000000805D09221048093430410922204109288
:10101000440460E482EE94E00E9413077E0110E134
:10102000F70161917F0182EE94E00E941307115055
:10103000B9F70E94D5056096F3E0C030DF07F9F6F6
:101040000093B800C8CF0F931F93CF93DF93EC01A9
:101050008D89823009F453C0833009F4ACC08130EB
:1010600009F05CC0EC81FD81E41BF50BAF01421B74
:10107000530B77FD3FC08E819F8168177907D4F5A8
:1010800057FF04C0240F351F50E040E08C819D8144
:10109000FA01E20FF31F8E179F071CF49C01241B1B
:1010A000350B1216130634F5FB0177FD3796A3E0D6
:1010B000F595E795AA95E1F7F695FE2FEE27F795BA
:1010C000E795E40FF51FE050FF4F6770772781E049
:1010D00090E001C0880F6A95EAF7482F01301105AA
:1010E00009F472C008F47CC02E0F3F1F02301105B6
:1010F00009F483C0DF91CF911F910F910895AC81C6
:10110000BD81CD01861B970BBC0161507109EE8139
:10111000FF81E41BF50BAF01421B530B77FDEACFB8
:101120008C819D81681779072CF757FF04C0240F25
:10113000351F50E040E08E819F81FA01E20FF31FDE
:101140008E179F071CF49C01241B350B12161306E7
:101150008CF6922FA42FA695A695A69580E8A89F19
:10116000D0011124A60FB71FA050BF4F477009F43C
:1011700057C058E0541B452F652F70E0FB01E85F16
:10118000FC4F8081251708F0B0C0621B71092FEF5A
:1011900030E002C0359527956A95E2F78223013049
:1011A0001105A9F108F464C00230110509F0A2CFBD
:1011B0002C9182272EC0AE81BF81CD01861B970B5B
:1011C000BC016150710955CF2E0F3F1FE217F30785
:1011D00009F490CF8191DF011197842B8C93F6CF86
:1011E00080952E0F3F1FE217F30709F483CF9191EB
:1011F000DF01119798239C93F6CFE217F30709F4C8
:1012000079CF8191DF01119784278C93F6CF2C91B0
:10121000822B8C93941708F46DCF941BA058BF4F6A
:10122000983008F447C00230110531F5FD01892FCF
:10123000208120952083E058FF4F88508830C0F7E8
:1012400028EF290F26952695269530E02F5F3F4FF2
:101250003695322F222737952795A20FB31F977007
:1012600009F448CFE92FF0E0E050FD4F808132C013
:1012700080952C918223CDCF81E00130110509F0BA
:1012800080E08195FD01292F8083E058FF4F285091
:101290002830D0F728EF290F26952695269530E09F
:1012A0002F5F3F4F3695322F222737952795A20F74
:1012B000B31F9770992309F41DCFE92FF0E0E05098
:1012C000FD4F80810130110541F058F002301105C9
:1012D00009F010CF9C91892702C09C91892B8C9397
:1012E00009CF80959C918923FACF0130110509F42B
:1012F0008ECF08F4BDCF0230110509F459CF8DCF40
:101300000F931F93CF93DF93EC018D89823009F403
:101310005EC0833009F4B5C0813009F067C0AC818C
:10132000BD81CD01841B950BAC014150510957FD86
:1013300049C08C819D81481759070CF043C077FF45
:1013400004C0260F371F70E060E08E819F81FB0193
:10135000E20FF31F8E179F071CF49C01261B370B0F
:10136000121613067CF5922FA62FA695A695A69584
:1013700080E8A89FD0011124A40FB51FA050BF4F33
:10138000677009F48FC048E0461B642F70E0FB01D2
:10139000E85FFC4F8081241708F002C1621B7109CD
:1013A0002FEF30E002C0359527956A95E2F782234A
:1013B0000130110509F46DC008F49CC0023011051C
:1013C00009F4F8C0DF91CF911F910F910895EC813E
:1013D000FD81E61BF70BAE81BF81CD01841B950B10
:1013E000AC0141505109BF01621B730B57FDEACF9D
:1013F0008E819F81481759072CF777FF04C0260F6D
:10140000371F70E060E08C819D81FB01E20FF31FCC
:101410008E179F071CF49C01261B370B1216130610
:101420008CF6FA0157FD379693E0F595E7959A9576
:10143000E1F7F695FE2FEE27F795E795E60FF71FF4
:10144000E050FF4F4770552781E090E001C0880FC2
:101450004A95EAF7482F0130110509F488C008F4CD
:1014600092C02E0F3F1F0230110509F0ABCFE217DB
:10147000F30709F4A7CF8191DF01119784278C939B
:10148000F6CFEE81FF81E61BF70BBF01621B730BEA
:101490004ECF2C91822B8C93941708F493CF941BEE
:1014A000A058BF4F983008F447C00230110531F5FD
:1014B000FD01892F208120952083E058FF4F88501F
:1014C0008830C0F728EF290F26952695269530E01D
:1014D0002F5F3F4F3695322F222737952795A20F42
:1014E000B31F977009F46ECFE92FF0E0E050FD4F85
:1014F000808132C080952C918223CDCF81E0013054
:10150000110509F080E08195FD01292F8083E058C5
:10151000FF4F28502830D0F728EF290F2695269521
:10152000269530E02F5F3F4F3695322F2227379593
:101530002795A20FB31F9770992309F443CFE92F82
:10154000F0E0E050FD4F80810130110541F058F08E
:101550000230110509F036CF9C91892702C09C9179
:10156000892B8C932FCF80959C918923FACF2E0FB6
:101570003F1FE217F30709F425CF8191DF0111978F
:10158000842B8C93F6CF80952E0F3F1F2E173F078D
:1015900009F418CF9191DF01119798239C93F6CF0E
:1015A0000130110509F475CF08F4A4CF02301105FC
:1015B00009F075CF2C9182276ECFDC0177FD67C0D3
:1015C00018968D919C911997681779070CF05FC058
:1015D00057FD5DC01A968D919C911B97481759072E
:1015E0000CF055C055968C9155978230B9F08330E8
:1015F00041F1813049F414968D919C91841B950B97
:10160000AB01BC01615071092130310521F108F4B1
:101610003FC02230310509F458C008951496ED9169
:10162000FC911597E61BF70BBF01615071091696E7
:101630008D919C91FC01E41BF50BAF0141505109C8
:10164000E3CF16968D919C91861B970BBA01AC0146
:1016500041505109D9CFFA0157FD3796A3E0F595CE
:10166000E795AA95E1F7F695FE2FEE27F795E79512
:10167000E60FF71FE050FF4F4770552721E030E09D
:1016800001C0220F4A95EAF78081822B808308955A
:10169000FA0157FD379623E0F595E7952A95E1F78E
:1016A000F695FE2FEE27F795E795E60FF71FE0502A
:1016B000FF4F4770552781E090E001C0880F4A95A1
:1016C000EAF7809590818923E1CFFA0157FD37969B
:1016D00083E0F595E7958A95E1F7F695FE2FEE27DD
:1016E000F795E795E60FF71FE050FF4F4770552736
:1016F00021E030E001C0220F4A95EAF7808182277D
:10170000C5CF0895FC016370658B84819581268126
:101710003781613039F0633029F0918780873387D2
:1017200022870895318720879387828708952F9293
:101730003F924F925F926F927F928F929F92AF9261
:10174000BF92CF92DF92EF92FF920F931F93CF93AE
:10175000DF93CDB7DEB769970FB6F894DEBF0FBE43
:10176000CDBF998F888F5B011A01D22E1F830E8304
:101770003701C982DC0158962D913C91599721156A
:10178000310509F004C118968D919C91199768173D
:1017900079070CF0C0C11A968D919C911B97481740
:1017A00059070CF0B8C18C2C912CFB0126E0C29E8D
:1017B000E00DF11D1124F987E8871E161F060CF0B5
:1017C000AAC1A40193E0440F551F9A95E1F75D87E4
:1017D0004C87CA01820D931D181619060CF09BC187
:1017E00057968C91811104C05FEA5D1508F4D3947B
:1017F000A88DB98DED91FC9111970284F385E02DB0
:10180000CD010995F5013596F98BE88BBB82AA824B
:10181000250188E690E08A199B099C0145E0D49E49
:10182000200D311D11243B8B2A8BEA89FB89E40DA5
:10183000F51D24913D822C82D12CC12C622F70E0A9
:101840007F876E87E88DF98DA081B18120FF7CC0F4
:10185000F981F13009F069C01C96ED91FC912E815F
:101860003F81A1014C0D5D1DB201888D998D0995B7
:10187000EE85FF85F595E7952E2F4FEFC41AD40A14
:101880006C817D81680D791D7D836C8378E0C7163E
:10189000D104A1F68FEF481A580AAA81BB81A80D7E
:1018A000B91DBB83AA83E889F989E415F50509F018
:1018B000BCCF2E813F8126153705A9F0A88DB98DA3
:1018C000ED91FC91B981B13009F051C0B5016B5F68
:1018D0007F4F0088F189E02D830128E030E0A101ED
:1018E000888D998D0995A88DB98DED91FC911197F1
:1018F0000688F789E02DCD0169960FB6F894DEBF12
:101900000FBECDBFDF91CF911F910F91FF90EF9050
:10191000DF90CF90BF90AF909F908F907F906F900F
:101920005F904F903F902F9009941E96ED91FC91FF
:10193000EE80FF80840194014C815D816A817B810E
:10194000888D998D099594CF2E813F812615370575
:1019500009F48ECF3981313029F41C96ED91FC9138
:1019600093017FCF1E96ED91FC917301E3CF6885C3
:101970007985681979090684F785E02D73010C854E
:101980001D859401A101888D998D0995ACCFF90130
:1019900034969491329745915491D91AB7E0DB9ED1
:1019A000400D511D1124F90125913491398B288B5B
:1019B000FA0145905490FA01329664903196C490A1
:1019C00032961491319604913981323008F48AC0EC
:1019D000E12E012E000CFF08402F002E000C550BAD
:1019E00059874887A88DB98DED91FC911197028494
:1019F000F385E02DCD010995B9818B2E912CE89CC2
:101A0000C001E99C900DF89C900D1124FC01EA0D99
:101A1000FB1DFF87EE871C82D12C712C9B868A864A
:101A20009101200F311D07FD3A953D8B2C8BA501AF
:101A3000410F511D17FD5A955F8B4E8B7C1408F09A
:101A400052CF872D90E048855985480F591F6A85E8
:101A50007B85469F9001479F300D569F300D112486
:101A6000D901A20DB31DBD87AC87EE85FF85FB8331
:101A7000EA83B12CA12C2C893D89280F391F3B8B7F
:101A80002A8B8C818A0DA61408F040C0877041F41F
:101A9000C2010196E889F989E40DF51DD4902C0165
:101AA000D7FE15C0A88DB98DED91FC91B981B130EB
:101AB000F1F40484F585E02D2E813F814A895B890C
:101AC0006E897F896A0D7B1D888D998D0995DD0C46
:101AD000EFEFAE1ABE0A2A813B81280D391D3B83E8
:101AE0002A83CFCF19861886F12CE12C7BCF068470
:101AF000F785E02DEE80FF80840194014C855D85A3
:101B00006A817B81888D998D0995E1CF3C81360D65
:101B10003C83739493CF69960FB6F894DEBF0FBEE3
:101B2000CDBFDF91CF911F910F91FF90EF90DF908C
:101B3000CF90BF90AF909F908F907F906F905F906D
:101B40004F903F902F900895AF92BF92CF92EF9217
:101B5000FF920F931F93CF93DF93EC01262F888D75
:101B6000998D009709F04FC06A30C9F41D861C8614
:101B70008C8998E0899F900111248E859F85820F22
:101B8000931F9F878E8781E090E0DF91CF911F9117
:101B90000F91FF90EF90CF90BF90AF9008956D3070
:101BA00091F3CC888E898823C1F08C859D85E6E0F1
:101BB000CE9E800D911D11244885598548175907DF
:101BC00064F44E855F851D861C86F8E0CF9EC001BB
:101BD0001124840F951F9F878E87EA88FB880889C8
:101BE00019894E855F856C857D85CE010E94970B96
:101BF0002C898C859D8536E0239F800D911D1124B5
:101C00009D878C87C0CF6A3069F41D861C86FC01D5
:101C10003696E4912C898E859F85E29F800D911DDB
:101C20001124AFCF6D3009F4AECFFC01349634915E
:101C3000631708F4A8CF3196E491E61708F4A3CF10
:101C4000FC01329645915491E62FE31BFF0B37E0E0
:101C50003E9F50013F9FB00C1124A40EB51EF5010C
:101C6000329634913196E4913323A1F1EE2391F130
:101C7000CC88F5013596E4914E89442301F10E2E6E
:101C8000000CFF0BE30FF11DCE9EA001CF9E500D67
:101C900011246C857D85460F571F688579856417EB
:101CA00075076CF44E855F851D861C860696FC01C3
:101CB0008491C89E400D511D11245F874E87EA888C
:101CC000FB88088919894E855F856C857D85CE01E5
:101CD0000E94970BF5013496E4912C898C859D85A3
:101CE000E29F800D911D11248BCF6F927F928F9276
:101CF0009F92AF92BF92CF92DF92EF92FF920F939B
:101D00001F93CF93DF93EC016B015A013901480116
:101D1000E881F9810284F385E02D0995E881F98154
:101D20000288F389E02D87019301A501B601CE0158
:101D30000995A501480D591D41505109E881F981C6
:101D40000288F389E02D9301B601CE010995E8815F
:101D5000F9810088F189E02D9401A501B601CE0139
:101D60000995C60CD71CB60161507109E881F9814B
:101D70000088F189E02D9401A501CE010995E88143
:101D8000F9810688F789E02DCE01DF91CF911F916F
:101D90000F91FF90EF90DF90CF90BF90AF909F900A
:101DA0008F907F906F9009946F927F928F929F9205
:101DB000AF92BF92CF92DF92EF92FF920F931F9359
:101DC000CF93DF935C01EB016A0149013801870180
:101DD000DC01ED91FC916217730719F56416750625
:101DE0002CF0962D872D3A01C92ED82E9601261952
:101DF00037092F5F3F4F048CF58DE02DA301BE0105
:101E0000C5010995DF91CF911F910F91FF90EF9040
:101E1000DF90CF90BF90AF909F908F907F906F900A
:101E200008954615570591F42617370724F0892D94
:101E30004B01C22FD82F9E01281939092F5F3F4F20
:101E4000068CF78DE02DA601B401DACF0284F3856C
:101E5000E02D0995D501ED91FC910488F589E02DDF
:101E600083019401A601BE01C5010995D501ED913B
:101E7000FC910688F789E02DC501DF91CF911F9174
:101E80000F91FF90EF90DF90CF90BF90AF909F9019
:101E90008F907F906F900994EF92FF920F931F9312
:101EA000DC011A960D911C911B9718962D913C916F
:101EB0001997ED91FC9100A0F1A1E02D7B0150E07C
:101EC00040E070E060E009951F910F91FF90EF9066
:101ED00008954F925F926F927F928F929F92AF92EE
:101EE000BF92CF92DF92EF92FF920F931F93CF9307
:101EF000DF936C012B015A0139014801DC01ED919E
:101F0000FC910284F385E02D0995E201640C751CB7
:101F1000D601ED91FC91C615D7055CF40088F189D6
:101F2000E02D87019401A501BE01C6010995219606
:101F3000EFCF0688F789E02DC601DF91CF911F9181
:101F40000F91FF90EF90DF90CF90BF90AF909F9058
:101F50008F907F906F905F904F9009948F929F9297
:101F6000AF92BF92CF92DF92EF92FF920F931F93A7
:101F7000CF93DF93EC015B014A016901E881F981AC
:101F80000284F385E02D099595012C0D3D1D21500E
:101F90003109E881F9810488F589E02D780184010F
:101FA000A401B501CE010995E881F9810688F78978
:101FB000E02DCE01DF91CF911F910F91FF90EF9017
:101FC000DF90CF90BF90AF909F908F9009948F92A9
:101FD0009F92AF92BF92CF92DF92EF92FF920F93B8
:101FE0001F93CF93DF93EC015B014A0169017801F4
:101FF000E881F9810284F385E02D0995C80CD91C8C
:10200000860101501109E881F9810488F589E02DE4
:102010009501A401B501CE010995E881F9810688F1
:10202000F789E02DCE01DF91CF911F910F91FF90A5
:10203000EF90DF90CF90BF90AF909F908F900994DA
:10204000EF92FF920F931F93DC01ED91FC9100A0A2
:10205000F1A1E02D09951F910F91FF90EF90089548
:102060000F931F93DC01ED91FC91068CF78DE02D11
:1020700009951F910F9108950F931F93DC01ED9126
:10208000FC91048CF58DE02D09951F910F91089519
:10209000DC01ED91FC910084F185E02D09942F92F3
:1020A0003F924F925F926F927F928F929F92AF92E8
:1020B000BF92CF92DF92EF92FF920F931F93CF9335
:1020C000DF9300D000D000D0CDB7DEB73C016A016D
:1020D0003E832D83FC82EB825801A41AB50AB7FE19
:1020E00003C0B194A194B1088D809E80861A970A8E
:1020F00097FE03C09194819491088A149B045CF02C
:10210000902F812F0D811E819D838E839C2D8D2D7F
:102110006B01692F782F0C151D055CF09D818E8158
:102120007E836D83692F782F902F812F8601C92E92
:10213000D82E1601201A310A2B012D813E81421A18
:10214000530A57FE03C0519441945108710137FE60
:1021500003C03FEFE31AF30AF594E7948D819E8163
:10216000861797075CF5A1E0B0E0BA83A983C01693
:10217000D1064CF1D301ED91FC910484F585E02D5D
:102180002B813C81A8016D817E818A149B041CF007
:102190004D815E81B801C3010995E418F508F7FE89
:1021A0000AC02D813E8189819A81280F391F3E8383
:1021B0002D83E20CF31C0F5F1F4FD9CF2FEF3FEFA2
:1021C0003A832983D4CF26960FB6F894DEBF0FBE8C
:1021D000CDBFDF91CF911F910F91FF90EF90DF90D6
:1021E000CF90BF90AF909F908F907F906F905F90B7
:1021F0004F903F902F900895089590E080E00895CB
:102200000E946B16FB0101900020E9F73197AF01A6
:10221000461B570BDC01ED91FC910280F381E02D10
:1022200009940F931F93CF93DF938C01D0E0C0E00C
:10223000F801EC0FFD1F6491662341F085E494E002
:102240000E945F04892B11F02196F2CF60E673E0C3
:1022500085E494E00E9402118C0F9D1FDF91CF91C5
:102260001F910F91089585ED8093BC0080911D040E
:1022700090911E04A0911F04B09120040796A11D07
:10228000B11D23E0B695A795979587952A95D1F727
:102290002091BC0024FD03C010921B0408954091BE
:1022A0001D0450911E0460911F0470912004452B61
:1022B000462B472B69F30097A105B10541F025E3B3
:1022C0002A95F1F700000197A109B109E1CF8091AA
:1022D0001C040C94B405CF9387E196E00E94111181
:1022E00088EE95E00E9411118EEA95E00E9411118E
:1022F00085E494E00E941D04892BD1F385E494E0E9
:102300000E941D04892B29F185E494E00E94FB03BF
:10231000C82F082E000C990B0E947016892B71F3A0
:10232000C133D1F487E795E00E9411112FB7F894DB
:102330008091EC039091ED03A091EE03B091EF0337
:102340002FBF8093F0039093F103A093F203B09317
:10235000F3038C2FCF91089588E695E00E94111128
:10236000C0E0F7CF1F920F920FB60F9211242F9358
:102370003F934F935F936F937F938F939F93AF930D
:10238000BF93EF93FF9385E494E00E943D04FF9197
:10239000EF91BF91AF919F918F917F916F915F91DD
:1023A0004F913F912F910F900FBE0F901F90189556
:1023B0001F920F920FB60F9211242F938F939F931A
:1023C000EF93FF93E0915504F09156048081E091E2
:1023D0005B04F0915C0482FD1BC0908180915E04DF
:1023E0008F5F8F7320915F04821741F0E0915E044C
:1023F000F0E0EB5BFB4F958F80935E04FF91EF91D4
:102400009F918F912F910F900FBE0F901F90189555
:102410008081F4CF1F920F920FB60F9211242F9349
:102420003F938F939F93AF93BF938091EC039091D1
:10243000ED03A091EE03B091EF033091E00323E0B0
:10244000230F2D3758F50196A11DB11D2093E003F0
:102450008093EC039093ED03A093EE03B093EF030E
:102460008091E1039091E203A091E303B091E40332
:102470000196A11DB11D8093E1039093E203A09307
:10248000E303B093E403BF91AF919F918F913F918C
:102490002F910F900FBE0F901F90189526E8230FD5
:1024A0000296A11DB11DD2CF1F920F920FB60F92AF
:1024B00011242F933F934F935F936F937F938F9349
:1024C0009F93AF93BF93EF93FF938091B900887F61
:1024D000803609F44AC0F0F5883209F4A7C018F52F
:1024E000803109F49BC0B8F4882309F4F9C088301E
:1024F00009F494C0FF91EF91BF91AF919F918F919B
:102500007F916F915F914F913F912F910F900FBEEF
:102510000F901F901895883109F488C0803251F7C8
:102520008093190414C0803409F49DC040F48033B2
:10253000B9F38833F9F68093190485ECB0C080357F
:1025400009F485C0883509F496C0883499F60E944C
:102550003311D0CF883909F48CC038F5883729F089
:1025600050F4883611F0803729F683E080931B04FD
:102570001092DF0357C0883809F47BC0803919F006
:10258000803809F0B7CF8091DF03803208F071C046
:10259000E091DF0381E08E0F8093DF038091BB0029
:1025A000F0E0E154FC4F80833DC0803B39F0E0F423
:1025B000803A09F479C0883A09F09CCF84E080938E
:1025C0001B041092BE031092BD03E091E703F0914B
:1025D000E80309958091BD0381110FC081E08093CC
:1025E000BD0310929D0309C0803C09F4A6CF883C2E
:1025F00009F4A3CF883B09F07DCFE091BE0381E0D1
:102600008E0F8093BE03F0E0E356FC4F80818093F1
:10261000BB009091BE038091BD0329C08091F60359
:102620008093BB0085EC8093BC0064CF909118042C
:1026300080911704981758F5E091180481E08E0FE7
:1026400080931804F0E0E950FC4F8081E9CFE091DD
:10265000180481E08E0F809318048091BB00F0E095
:10266000E950FC4F808390911804809117049817CB
:10267000C8F285E8D8CFE091180481E08E0F8093EE
:1026800018048091BB00F0E0E950FC4F80838091FA
:102690001A0481115CCF81E08093F50384EA809372
:1026A000BC0010921B0426CF85EC8093BC001092D6
:1026B0001B048091DF03803230F4E091DF03F0E00F
:1026C000E154FC4F10826091DF0370E0E091E5037C
:1026D000F091E6038FEB93E009951092DF030ACFA8
:1026E0001092190434CFE5E4F4E01382128288EEEC
:1026F00093E0A0E0B0E084839583A683B78324E1D0
:1027000033E03183208325EC30E03587248724ECC7
:1027100030E03787268720EC30E0318B208B21ECAE
:1027200030E0338B228B22EC30E0358B248B26EC8F
:1027300030E0378B268B118E128E138E148EE2EEC4
:10274000F4E01382128284839583A683B78386E2A2
:1027500093E091838083EEEEF4E01382128220E80E
:1027600030E03583248380E290E09783868331874D
:10277000208793878287158A158614861786168682
:1027800081E0848B2FEF3FEF338B228B318B208BBB
:10279000868B178A118E108E88E393E09183808355
:1027A0008FEF848F80A3868F858F82E0878F089537
:1027B000789484B5826084BD84B5816084BD85B51C
:1027C000826085BD85B5816085BD80916E00816028
:1027D00080936E00109281008091810082608093CE
:1027E00081008091810081608093810080918000D0
:1027F0008160809380008091B10084608093B100FB
:102800008091B00081608093B00080917A008460F4
:1028100080937A0080917A00826080937A00809120
:102820007A00816080937A0080917A00806880933A
:102830007A001092C100E0915504F0915604C2E074
:10284000C083E0915104F09152041082E09153044E
:10285000F09154048FEC808310925D04E091590450
:10286000F0915A0486E08083E0915704F091580477
:10287000808180618083E0915704F09158048081C9
:1028800088608083E0915704F091580480818068CB
:102890008083E0915704F091580480818F7D80837C
:1028A00063E673E085E494E00E94021160E673E061
:1028B00085E494E00E940211C09309058CE38093A3
:1028C000080580910A058F3F09F4E8C180910C0545
:1028D0000E949E0380910E050E949E0380910E052A
:1028E000082E000C990BFC01E859F94FE491F0E037
:1028F000EE0FFF1FEC5AF94F2591349130931505D7
:1029000020931405FC01E458F94FE491E0931A0573
:1029100080910C05082E000C990BFC01E859F94F29
:10292000E491F0E0EE0FFF1FEC5AF94F259134913E
:102930003093170520931605FC01E458F94FE491F4
:10294000E0931B0580910F0581113CC080910A0521
:102950000E949E0380910B050E949E0380910B05AF
:10296000082E000C990BFC01E859F94FE491F0E0B6
:10297000EE0FFF1FEC5AF94F259134913093130558
:1029800020931205FC01E458F94FE491E0931905F6
:1029900080910A05082E000C990BFC01E859F94FAB
:1029A000E491F0E0EE0FFF1FEC5AF94F25913491BE
:1029B0003093110520931005FC01E458F94FE49180
:1029C000E093180580910F05882309F434C0CFB730
:1029D000F8948091EB03811124C0E2E7F6E0849142
:1029E000E6E8F6E09491E82FF0E0EE0FFF1FE25AE0
:1029F000F94FA591B491EC91E92321F461E08AE0CB
:102A00000E94CC048AE00E949E038CB580618CBD3C
:102A10008CB580648CBD8DE00E949E038BE00E948B
:102A20009E038091EB038F5F8093EB03CFBF80E524
:102A30008CBD81E08DBD80910D0587FD1DC00E947C
:102A40009E0361E080910D050E94CC0461E070E07E
:102A500080E090E00E943D0560E080910D050E94BD
:102A6000CC046AE070E080E090E00E943D0561E007
:102A700080910D050E94CC048EEA0E94420785EDEC
:102A80000E94420780E80E94420788EA0E944207AB
:102A90008FE10E94420783ED0E94420780E00E947E
:102AA000420780E40E9442078DE80E94420784E1C9
:102AB0000E94420780E20E94420780E00E94420793
:102AC00081EA0E94420788EC0E9442078AED0E9438
:102AD000420782E00E94420781E80E9442078FE895
:102AE0000E94420789ED0E94420781EF0E9442073F
:102AF0008BED0E94420780E40E94420784EA0E9414
:102B0000420786EA0E9442078EE20E9442078FEA4D
:102B10000E944207E0E0F1E080E092E0DF019C01EA
:102B20001D9221503040E1F70E9496070E946B11E0
:102B30008093F40380E0E82E81E0F82EC12C92E02F
:102B4000D92E00E010E099249394C1E0D0E02AE06F
:102B5000A22EB12C8091F403813309F073C09092BE
:102B60000205D0930105C0930005D093FF04C093E4
:102B7000FE041092FB041092FA04B092FD04A0929D
:102B8000FC04D701F6011D923197E9F769E673E07D
:102B90008EEE94E00E94021160E673E08EEE94E007
:102BA0000E9402110E94960761E070E080E090E0D0
:102BB0000E943D0586E20E94420780E00E94420793
:102BC00080E00E94420780E00E9442078FE00E945E
:102BD000420780E00E9442078FEF0E9442078FE287
:102BE0000E94420760ED77E080E090E00E943D05A2
:102BF0008EE20E94420768EE73E080E090E00E945F
:102C00003D0587E20E94420780E00E94420780E083
:102C10000E94420780E00E9442078FE00E94420724
:102C200080E00E9442078FEF0E9442078FE20E94DD
:102C3000420760ED77E080E090E00E943D058EE283
:102C40000E9442072FB7F8948091EC039091ED0316
:102C5000A091EE03B091EF032FBF4091F00350918C
:102C6000F1036091F2037091F303841B950BA60BA3
:102C7000B70B81319742A105B10520F00E946B117D
:102C80008093F4030115110509F464CF0E9429040F
:102C9000882309F45FCF0E9400005CCF1092EA0302
:102CA0001092E90310922204109244040E949605A7
:102CB0008DEB93E09093E8038093E7038EEB93E032
:102CC0009093E6038093E503B6CEEE0FFF1F0590C9
:102CD000F491E02D099481E090E0F8940C9488162A
:102CE00091110C947A1680538A5018F0865C0C94DB
:102CF0008016089599278827089585FD0C947A16E3
:102D0000806291110C947A1681568A51D8F70895F1
:102D1000F894FFCF00000000000000000000000059
:102D200000000000000000000000000000000000A3
:102D30000000000000000000000000000000000093
:102D40000000000000000000000000000000000083
:102D500000000080808000000000000000000000F3
:102D600000000000008080C0C000000000000000E3
:102D70000000000000000000000000000000000053
:102D80000000000000000000000000000000000043
:102D90000000000000000000000000000000000033
:102DA000000000000000000080C0E0F0F8FCF8E047
:102DB0000000000000000000000000000000000013
:102DC0000080808080800080800000000080808003
:102DD000808000FFFFFF00000000808080800000F6
:102DE0008080000080FFFF808000808000808080E5
:102DF000800080800000000000808000008C8E84B5
:102E0000000080F8F8F880000000000000000000DA
:102E100000000000F0F0F0F0F0F0F0F0F0F0F0F072
:102E2000E0E0C08000E0FCFEFFFFFF7FFFFFFFFF50
:102E3000FF0000000000000000000000000000FE95
:102E4000FFC70101010183FFFF00007CFEC70101F4
:102E5000010183FFFFFF0038FEC78301010183C723
:102E6000FFFF000001FFFF010100FFFF070101015B
:102E700000007FFF80000000FFFF7F0000FFFFFFDA
:102E8000000001FFFFFF0100000000000000000043
:102E900000000000030F3F7F7FFFFFFFFFFFFFFFEA
:102EA000E7C7C78F8F9FBFFFFFC3C0F0FFFFFFFFC4
:102EB000FFFCFCFCFCFCFCFCFCF8F8F0F0E0C000C3
:102EC00001030303030301030300000000010303E4
:102ED00003030101030100000001030303030101D7
:102EE00003030000000303000000030300000000D0
:102EF00000000001030303030301000000010301BC
:102F000000000003030100000000000000000000BA
:102F100000000000000103070F1F3F7F0080C0E09A
:102F2000F0F8FCFE000000005F04BF03EC03AC04FB
:102F30001D04FB030F04000000001307E606FD104C
:102F4000BC06DF06CC06BD0600000000A40DBF03D2
:102F5000FD10FC10DD0ABC06481020103C1030109B
:102F60004F10BC06820B810B23088009690F4C0FA0
:102F7000D40E750E0D0A0073746172740043697289
:102F8000637569746F2E696F20526F636B732100D4
:107E0000112484B714BE81FFF0D085E080938100F7
:107E100082E08093C00088E18093C10086E0809377
:107E2000C20080E18093C4008EE0C9D0259A86E02C
:107E300020E33CEF91E0309385002093840096BBD3
:107E4000B09BFECF1D9AA8958150A9F7CC24DD24C4
:107E500088248394B5E0AB2EA1E19A2EF3E0BF2EE7
:107E6000A2D0813461F49FD0082FAFD0023811F036
:107E7000013811F484E001C083E08DD089C08234E0
:107E800011F484E103C0853419F485E0A6D080C0E4
:107E9000853579F488D0E82EFF2485D0082F10E0AE
:107EA000102F00270E291F29000F111F8ED06801E7
:107EB0006FC0863521F484E090D080E0DECF843638
:107EC00009F040C070D06FD0082F6DD080E0C81688
:107ED00080E7D80618F4F601B7BEE895C0E0D1E017
:107EE00062D089930C17E1F7F0E0CF16F0E7DF06D8
:107EF00018F0F601B7BEE89568D007B600FCFDCFD4
:107F0000A601A0E0B1E02C9130E011968C91119780
:107F100090E0982F8827822B932B1296FA010C0160
:107F200087BEE89511244E5F5F4FF1E0A038BF0790
:107F300051F7F601A7BEE89507B600FCFDCF97BE46
:107F4000E89526C08437B1F42ED02DD0F82E2BD052
:107F50003CD0F601EF2C8F010F5F1F4F84911BD097
:107F6000EA94F801C1F70894C11CD11CFA94CF0C13
:107F7000D11C0EC0853739F428D08EE10CD085E9AC
:107F80000AD08FE07ACF813511F488E018D01DD067
:107F900080E101D065CF982F8091C00085FFFCCF94
:107FA0009093C60008958091C00087FFFCCF809118
:107FB000C00084FD01C0A8958091C6000895E0E648
:107FC000F0E098E1908380830895EDDF803219F02E
:107FD00088E0F5DFFFCF84E1DECF1F93182FE3DFCA
:107FE0001150E9F7F2DF1F91089580E0E8DFEE27F6
:047FF000FF270994CA
:027FFE00040479
:00000001FF
